{
  "_format": "hh-sol-artifact-1",
  "contractName": "GovChain",
  "sourceName": "contracts/GovChain.sol",
  "abi": [
    {
      "anonymous": false,
      "inputs": [
        {
          "indexed": false,
          "internalType": "uint256",
          "name": "caseId",
          "type": "uint256"
        },
        {
          "indexed": false,
          "internalType": "enum GovChain.Status",
          "name": "status",
          "type": "uint8"
        },
        {
          "indexed": false,
          "internalType": "address",
          "name": "actor",
          "type": "address"
        },
        {
          "indexed": false,
          "internalType": "string",
          "name": "note",
          "type": "string"
        }
      ],
      "name": "CaseStatusUpdated",
      "type": "event"
    },
    {
      "anonymous": false,
      "inputs": [
        {
          "indexed": false,
          "internalType": "uint256",
          "name": "caseId",
          "type": "uint256"
        },
        {
          "indexed": false,
          "internalType": "address",
          "name": "citizen",
          "type": "address"
        }
      ],
      "name": "CaseSubmitted",
      "type": "event"
    },
    {
      "inputs": [],
      "name": "caseCounter",
      "outputs": [
        {
          "internalType": "uint256",
          "name": "",
          "type": "uint256"
        }
      ],
      "stateMutability": "view",
      "type": "function"
    },
    {
      "inputs": [
        {
          "internalType": "uint256",
          "name": "",
          "type": "uint256"
        },
        {
          "internalType": "uint256",
          "name": "",
          "type": "uint256"
        }
      ],
      "name": "caseLogs",
      "outputs": [
        {
          "internalType": "uint256",
          "name": "caseId",
          "type": "uint256"
        },
        {
          "internalType": "enum GovChain.Status",
          "name": "status",
          "type": "uint8"
        },
        {
          "internalType": "address",
          "name": "actor",
          "type": "address"
        },
        {
          "internalType": "uint256",
          "name": "timestamp",
          "type": "uint256"
        },
        {
          "internalType": "string",
          "name": "note",
          "type": "string"
        }
      ],
      "stateMutability": "view",
      "type": "function"
    },
    {
      "inputs": [
        {
          "internalType": "uint256",
          "name": "",
          "type": "uint256"
        }
      ],
      "name": "cases",
      "outputs": [
        {
          "internalType": "uint256",
          "name": "id",
          "type": "uint256"
        },
        {
          "internalType": "address",
          "name": "citizen",
          "type": "address"
        },
        {
          "internalType": "string",
          "name": "citizenId",
          "type": "string"
        },
        {
          "internalType": "string",
          "name": "fileHash",
          "type": "string"
        },
        {
          "internalType": "string",
          "name": "description",
          "type": "string"
        },
        {
          "internalType": "enum GovChain.Status",
          "name": "status",
          "type": "uint8"
        },
        {
          "internalType": "uint256",
          "name": "createdAt",
          "type": "uint256"
        }
      ],
      "stateMutability": "view",
      "type": "function"
    },
    {
      "inputs": [
        {
          "internalType": "uint256",
          "name": "_caseId",
          "type": "uint256"
        }
      ],
      "name": "getCase",
      "outputs": [
        {
          "components": [
            {
              "internalType": "uint256",
              "name": "id",
              "type": "uint256"
            },
            {
              "internalType": "address",
              "name": "citizen",
              "type": "address"
            },
            {
              "internalType": "string",
              "name": "citizenId",
              "type": "string"
            },
            {
              "internalType": "string",
              "name": "fileHash",
              "type": "string"
            },
            {
              "internalType": "string",
              "name": "description",
              "type": "string"
            },
            {
              "internalType": "enum GovChain.Status",
              "name": "status",
              "type": "uint8"
            },
            {
              "internalType": "uint256",
              "name": "createdAt",
              "type": "uint256"
            }
          ],
          "internalType": "struct GovChain.CaseFile",
          "name": "",
          "type": "tuple"
        }
      ],
      "stateMutability": "view",
      "type": "function"
    },
    {
      "inputs": [
        {
          "internalType": "uint256",
          "name": "_caseId",
          "type": "uint256"
        }
      ],
      "name": "getCaseLogs",
      "outputs": [
        {
          "components": [
            {
              "internalType": "uint256",
              "name": "caseId",
              "type": "uint256"
            },
            {
              "internalType": "enum GovChain.Status",
              "name": "status",
              "type": "uint8"
            },
            {
              "internalType": "address",
              "name": "actor",
              "type": "address"
            },
            {
              "internalType": "uint256",
              "name": "timestamp",
              "type": "uint256"
            },
            {
              "internalType": "string",
              "name": "note",
              "type": "string"
            }
          ],
          "internalType": "struct GovChain.CaseLog[]",
          "name": "",
          "type": "tuple[]"
        }
      ],
      "stateMutability": "view",
      "type": "function"
    },
    {
      "inputs": [
        {
          "internalType": "string",
          "name": "_citizenId",
          "type": "string"
        },
        {
          "internalType": "string",
          "name": "_fileHash",
          "type": "string"
        },
        {
          "internalType": "string",
          "name": "_description",
          "type": "string"
        }
      ],
      "name": "submitCase",
      "outputs": [
        {
          "internalType": "uint256",
          "name": "",
          "type": "uint256"
        }
      ],
      "stateMutability": "nonpayable",
      "type": "function"
    },
    {
      "inputs": [
        {
          "internalType": "uint256",
          "name": "_caseId",
          "type": "uint256"
        },
        {
          "internalType": "enum GovChain.Status",
          "name": "_status",
          "type": "uint8"
        },
        {
          "internalType": "string",
          "name": "_note",
          "type": "string"
        }
      ],
      "name": "updateStatus",
      "outputs": [],
      "stateMutability": "nonpayable",
      "type": "function"
    }
  ],
  "bytecode": "0x6080604052348015600f57600080fd5b50611b3d8061001f6000396000f3fe608060405234801561001057600080fd5b506004361061007d5760003560e01c80638da220e41161005b5780638da220e4146100ec578063a91a10801461011c578063ed21053d1461014c578063f09790dd146101805761007d565b806343ab8dd3146100825780635cbfc8c5146100a0578063781f0b72146100d0575b600080fd5b61008a6101b6565b6040516100979190610ed6565b60405180910390f35b6100ba60048036038101906100b59190610f31565b6101bc565b6040516100c791906111ed565b60405180910390f35b6100ea60048036038101906100e59190611369565b610365565b005b610106600480360381019061010191906113d8565b61056a565b6040516101139190610ed6565b60405180910390f35b61013660048036038101906101319190610f31565b610870565b6040516101439190611529565b60405180910390f35b6101666004803603810190610161919061154b565b610b49565b6040516101779594939291906115f3565b60405180910390f35b61019a60048036038101906101959190610f31565b610c51565b6040516101ad979695949392919061164d565b60405180910390f35b60005481565b606060026000838152602001908152602001600020805480602002602001604051908101604052809291908181526020016000905b8282101561035a57838290600052602060002090600402016040518060a0016040529081600082015481526020016001820160009054906101000a900460ff16600581111561024357610242610f99565b5b600581111561025557610254610f99565b5b81526020016001820160019054906101000a900473ffffffffffffffffffffffffffffffffffffffff1673ffffffffffffffffffffffffffffffffffffffff1673ffffffffffffffffffffffffffffffffffffffff168152602001600282015481526020016003820180546102c990611700565b80601f01602080910402602001604051908101604052809291908181526020018280546102f590611700565b80156103425780601f1061031757610100808354040283529160200191610342565b820191906000526020600020905b81548152906001019060200180831161032557829003601f168201915b505050505081525050815260200190600101906101f1565b505050509050919050565b60008311801561037757506000548311155b6103b6576040517f08c379a00000000000000000000000000000000000000000000000000000000081526004016103ad9061177d565b60405180910390fd5b6000600160008581526020019081526020016000209050828160050160006101000a81548160ff021916908360058111156103f4576103f3610f99565b5b0217905550600260008581526020019081526020016000206040518060a001604052808681526020018560058111156104305761042f610f99565b5b81526020013373ffffffffffffffffffffffffffffffffffffffff1681526020014281526020018481525090806001815401808255809150506001900390600052602060002090600402016000909190919091506000820151816000015560208201518160010160006101000a81548160ff021916908360058111156104b9576104b8610f99565b5b021790555060408201518160010160016101000a81548173ffffffffffffffffffffffffffffffffffffffff021916908373ffffffffffffffffffffffffffffffffffffffff1602179055506060820151816002015560808201518160030190816105249190611949565b5050507f473f688174899feffbd8ec28d5a133881dec995fe826098006a8c6ef76163d018484338560405161055c9493929190611a1b565b60405180910390a150505050565b600080600081548092919061057e90611a96565b91905055506000805490506040518060e001604052808281526020013373ffffffffffffffffffffffffffffffffffffffff168152602001868152602001858152602001848152602001600060058111156105dc576105db610f99565b5b815260200142815250600160008381526020019081526020016000206000820151816000015560208201518160010160006101000a81548173ffffffffffffffffffffffffffffffffffffffff021916908373ffffffffffffffffffffffffffffffffffffffff160217905550604082015181600201908161065e9190611949565b5060608201518160030190816106749190611949565b50608082015181600401908161068a9190611949565b5060a08201518160050160006101000a81548160ff021916908360058111156106b6576106b5610f99565b5b021790555060c08201518160060155905050600260008281526020019081526020016000206040518060a0016040528083815260200160006005811115610700576106ff610f99565b5b81526020013373ffffffffffffffffffffffffffffffffffffffff1681526020014281526020016040518060400160405280600981526020017f5375626d6974746564000000000000000000000000000000000000000000000081525081525090806001815401808255809150506001900390600052602060002090600402016000909190919091506000820151816000015560208201518160010160006101000a81548160ff021916908360058111156107be576107bd610f99565b5b021790555060408201518160010160016101000a81548173ffffffffffffffffffffffffffffffffffffffff021916908373ffffffffffffffffffffffffffffffffffffffff1602179055506060820151816002015560808201518160030190816108299190611949565b5050507fe3f5e4c31aae9ca92162be95488fd734a4d11456fc93d06d208f5243b1f47e05813360405161085d929190611ade565b60405180910390a1809150509392505050565b610878610e58565b60008211801561088a57506000548211155b6108c9576040517f08c379a00000000000000000000000000000000000000000000000000000000081526004016108c09061177d565b60405180910390fd5b600160008381526020019081526020016000206040518060e0016040529081600082015481526020016001820160009054906101000a900473ffffffffffffffffffffffffffffffffffffffff1673ffffffffffffffffffffffffffffffffffffffff1673ffffffffffffffffffffffffffffffffffffffff16815260200160028201805461095790611700565b80601f016020809104026020016040519081016040528092919081815260200182805461098390611700565b80156109d05780601f106109a5576101008083540402835291602001916109d0565b820191906000526020600020905b8154815290600101906020018083116109b357829003601f168201915b505050505081526020016003820180546109e990611700565b80601f0160208091040260200160405190810160405280929190818152602001828054610a1590611700565b8015610a625780601f10610a3757610100808354040283529160200191610a62565b820191906000526020600020905b815481529060010190602001808311610a4557829003601f168201915b50505050508152602001600482018054610a7b90611700565b80601f0160208091040260200160405190810160405280929190818152602001828054610aa790611700565b8015610af45780601f10610ac957610100808354040283529160200191610af4565b820191906000526020600020905b815481529060010190602001808311610ad757829003601f168201915b505050505081526020016005820160009054906101000a900460ff166005811115610b2257610b21610f99565b5b6005811115610b3457610b33610f99565b5b81526020016006820154815250509050919050565b60026020528160005260406000208181548110610b6557600080fd5b9060005260206000209060040201600091509150508060000154908060010160009054906101000a900460ff16908060010160019054906101000a900473ffffffffffffffffffffffffffffffffffffffff1690806002015490806003018054610bce90611700565b80601f0160208091040260200160405190810160405280929190818152602001828054610bfa90611700565b8015610c475780601f10610c1c57610100808354040283529160200191610c47565b820191906000526020600020905b815481529060010190602001808311610c2a57829003601f168201915b5050505050905085565b60016020528060005260406000206000915090508060000154908060010160009054906101000a900473ffffffffffffffffffffffffffffffffffffffff1690806002018054610ca090611700565b80601f0160208091040260200160405190810160405280929190818152602001828054610ccc90611700565b8015610d195780601f10610cee57610100808354040283529160200191610d19565b820191906000526020600020905b815481529060010190602001808311610cfc57829003601f168201915b505050505090806003018054610d2e90611700565b80601f0160208091040260200160405190810160405280929190818152602001828054610d5a90611700565b8015610da75780601f10610d7c57610100808354040283529160200191610da7565b820191906000526020600020905b815481529060010190602001808311610d8a57829003601f168201915b505050505090806004018054610dbc90611700565b80601f0160208091040260200160405190810160405280929190818152602001828054610de890611700565b8015610e355780601f10610e0a57610100808354040283529160200191610e35565b820191906000526020600020905b815481529060010190602001808311610e1857829003601f168201915b5050505050908060050160009054906101000a900460ff16908060060154905087565b6040518060e0016040528060008152602001600073ffffffffffffffffffffffffffffffffffffffff16815260200160608152602001606081526020016060815260200160006005811115610eb057610eaf610f99565b5b8152602001600081525090565b6000819050919050565b610ed081610ebd565b82525050565b6000602082019050610eeb6000830184610ec7565b92915050565b6000604051905090565b600080fd5b600080fd5b610f0e81610ebd565b8114610f1957600080fd5b50565b600081359050610f2b81610f05565b92915050565b600060208284031215610f4757610f46610efb565b5b6000610f5584828501610f1c565b91505092915050565b600081519050919050565b600082825260208201905092915050565b6000819050602082019050919050565b610f9381610ebd565b82525050565b7f4e487b7100000000000000000000000000000000000000000000000000000000600052602160045260246000fd5b60068110610fd957610fd8610f99565b5b50565b6000819050610fea82610fc8565b919050565b6000610ffa82610fdc565b9050919050565b61100a81610fef565b82525050565b600073ffffffffffffffffffffffffffffffffffffffff82169050919050565b600061103b82611010565b9050919050565b61104b81611030565b82525050565b600081519050919050565b600082825260208201905092915050565b60005b8381101561108b578082015181840152602081019050611070565b60008484015250505050565b6000601f19601f8301169050919050565b60006110b382611051565b6110bd818561105c565b93506110cd81856020860161106d565b6110d681611097565b840191505092915050565b600060a0830160008301516110f96000860182610f8a565b50602083015161110c6020860182611001565b50604083015161111f6040860182611042565b5060608301516111326060860182610f8a565b506080830151848203608086015261114a82826110a8565b9150508091505092915050565b600061116383836110e1565b905092915050565b6000602082019050919050565b600061118382610f5e565b61118d8185610f69565b93508360208202850161119f85610f7a565b8060005b858110156111db57848403895281516111bc8582611157565b94506111c78361116b565b925060208a019950506001810190506111a3565b50829750879550505050505092915050565b600060208201905081810360008301526112078184611178565b905092915050565b6006811061121c57600080fd5b50565b60008135905061122e8161120f565b92915050565b600080fd5b600080fd5b7f4e487b7100000000000000000000000000000000000000000000000000000000600052604160045260246000fd5b61127682611097565b810181811067ffffffffffffffff821117156112955761129461123e565b5b80604052505050565b60006112a8610ef1565b90506112b4828261126d565b919050565b600067ffffffffffffffff8211156112d4576112d361123e565b5b6112dd82611097565b9050602081019050919050565b82818337600083830152505050565b600061130c611307846112b9565b61129e565b90508281526020810184848401111561132857611327611239565b5b6113338482856112ea565b509392505050565b600082601f8301126113505761134f611234565b5b81356113608482602086016112f9565b91505092915050565b60008060006060848603121561138257611381610efb565b5b600061139086828701610f1c565b93505060206113a18682870161121f565b925050604084013567ffffffffffffffff8111156113c2576113c1610f00565b5b6113ce8682870161133b565b9150509250925092565b6000806000606084860312156113f1576113f0610efb565b5b600084013567ffffffffffffffff81111561140f5761140e610f00565b5b61141b8682870161133b565b935050602084013567ffffffffffffffff81111561143c5761143b610f00565b5b6114488682870161133b565b925050604084013567ffffffffffffffff81111561146957611468610f00565b5b6114758682870161133b565b9150509250925092565b600060e0830160008301516114976000860182610f8a565b5060208301516114aa6020860182611042565b50604083015184820360408601526114c282826110a8565b915050606083015184820360608601526114dc82826110a8565b915050608083015184820360808601526114f682826110a8565b91505060a083015161150b60a0860182611001565b5060c083015161151e60c0860182610f8a565b508091505092915050565b60006020820190508181036000830152611543818461147f565b905092915050565b6000806040838503121561156257611561610efb565b5b600061157085828601610f1c565b925050602061158185828601610f1c565b9150509250929050565b61159481610fef565b82525050565b6115a381611030565b82525050565b600082825260208201905092915050565b60006115c582611051565b6115cf81856115a9565b93506115df81856020860161106d565b6115e881611097565b840191505092915050565b600060a0820190506116086000830188610ec7565b611615602083018761158b565b611622604083018661159a565b61162f6060830185610ec7565b818103608083015261164181846115ba565b90509695505050505050565b600060e082019050611662600083018a610ec7565b61166f602083018961159a565b818103604083015261168181886115ba565b9050818103606083015261169581876115ba565b905081810360808301526116a981866115ba565b90506116b860a083018561158b565b6116c560c0830184610ec7565b98975050505050505050565b7f4e487b7100000000000000000000000000000000000000000000000000000000600052602260045260246000fd5b6000600282049050600182168061171857607f821691505b60208210810361172b5761172a6116d1565b5b50919050565b7f496e76616c696420636173650000000000000000000000000000000000000000600082015250565b6000611767600c836115a9565b915061177282611731565b602082019050919050565b600060208201905081810360008301526117968161175a565b9050919050565b60008190508160005260206000209050919050565b60006020601f8301049050919050565b600082821b905092915050565b6000600883026117ff7fffffffffffffffffffffffffffffffffffffffffffffffffffffffffffffffff826117c2565b61180986836117c2565b95508019841693508086168417925050509392505050565b6000819050919050565b600061184661184161183c84610ebd565b611821565b610ebd565b9050919050565b6000819050919050565b6118608361182b565b61187461186c8261184d565b8484546117cf565b825550505050565b600090565b61188961187c565b611894818484611857565b505050565b5b818110156118b8576118ad600082611881565b60018101905061189a565b5050565b601f8211156118fd576118ce8161179d565b6118d7846117b2565b810160208510156118e6578190505b6118fa6118f2856117b2565b830182611899565b50505b505050565b600082821c905092915050565b600061192060001984600802611902565b1980831691505092915050565b6000611939838361190f565b9150826002028217905092915050565b61195282611051565b67ffffffffffffffff81111561196b5761196a61123e565b5b6119758254611700565b6119808282856118bc565b600060209050601f8311600181146119b357600084156119a1578287015190505b6119ab858261192d565b865550611a13565b601f1984166119c18661179d565b60005b828110156119e9578489015182556001820191506020850194506020810190506119c4565b86831015611a065784890151611a02601f89168261190f565b8355505b6001600288020188555050505b505050505050565b6000608082019050611a306000830187610ec7565b611a3d602083018661158b565b611a4a604083018561159a565b8181036060830152611a5c81846115ba565b905095945050505050565b7f4e487b7100000000000000000000000000000000000000000000000000000000600052601160045260246000fd5b6000611aa182610ebd565b91507fffffffffffffffffffffffffffffffffffffffffffffffffffffffffffffffff8203611ad357611ad2611a67565b5b600182019050919050565b6000604082019050611af36000830185610ec7565b611b00602083018461159a565b939250505056fea2646970667358221220bac4e18ad38f2a29f2d2cbc9ca6f0910f4e080846c5b2cca984f334a5a2ef75664736f6c634300081c0033",
  "linkReferences": {},
  "deployedLinkReferences": {}
}